{
  "contractName": "Crowdsale",
  "abi": [
    {
      "constant": true,
      "inputs": [],
      "name": "deadline",
      "outputs": [
        {
          "name": "",
          "type": "uint256"
        }
      ],
      "payable": false,
      "stateMutability": "view",
      "type": "function",
      "signature": "0x29dcb0cf"
    },
    {
      "constant": true,
      "inputs": [],
      "name": "beneficiary",
      "outputs": [
        {
          "name": "",
          "type": "address"
        }
      ],
      "payable": false,
      "stateMutability": "view",
      "type": "function",
      "signature": "0x38af3eed"
    },
    {
      "constant": true,
      "inputs": [],
      "name": "tokenReward",
      "outputs": [
        {
          "name": "",
          "type": "address"
        }
      ],
      "payable": false,
      "stateMutability": "view",
      "type": "function",
      "signature": "0x6e66f6e9"
    },
    {
      "constant": true,
      "inputs": [
        {
          "name": "",
          "type": "address"
        }
      ],
      "name": "balanceOf",
      "outputs": [
        {
          "name": "",
          "type": "uint256"
        }
      ],
      "payable": false,
      "stateMutability": "view",
      "type": "function",
      "signature": "0x70a08231"
    },
    {
      "constant": true,
      "inputs": [],
      "name": "fundingGoal",
      "outputs": [
        {
          "name": "",
          "type": "uint256"
        }
      ],
      "payable": false,
      "stateMutability": "view",
      "type": "function",
      "signature": "0x7a3a0e84"
    },
    {
      "constant": true,
      "inputs": [],
      "name": "amountRaised",
      "outputs": [
        {
          "name": "",
          "type": "uint256"
        }
      ],
      "payable": false,
      "stateMutability": "view",
      "type": "function",
      "signature": "0x7b3e5e7b"
    },
    {
      "constant": true,
      "inputs": [],
      "name": "price",
      "outputs": [
        {
          "name": "",
          "type": "uint256"
        }
      ],
      "payable": false,
      "stateMutability": "view",
      "type": "function",
      "signature": "0xa035b1fe"
    },
    {
      "inputs": [
        {
          "name": "ifSuccessfulSendTo",
          "type": "address"
        },
        {
          "name": "fundingGoalInEthers",
          "type": "uint256"
        },
        {
          "name": "durationInMinutes",
          "type": "uint256"
        },
        {
          "name": "etherCostOfEachToken",
          "type": "uint256"
        },
        {
          "name": "addressOfTokenUsedAsReward",
          "type": "address"
        }
      ],
      "payable": false,
      "stateMutability": "nonpayable",
      "type": "constructor",
      "signature": "constructor"
    },
    {
      "payable": true,
      "stateMutability": "payable",
      "type": "fallback"
    },
    {
      "anonymous": false,
      "inputs": [
        {
          "indexed": false,
          "name": "recipient",
          "type": "address"
        },
        {
          "indexed": false,
          "name": "totalAmountRaised",
          "type": "uint256"
        }
      ],
      "name": "GoalReached",
      "type": "event",
      "signature": "0xec3f991caf7857d61663fd1bba1739e04abd4781238508cde554bb849d790c85"
    },
    {
      "anonymous": false,
      "inputs": [
        {
          "indexed": false,
          "name": "backer",
          "type": "address"
        },
        {
          "indexed": false,
          "name": "amount",
          "type": "uint256"
        },
        {
          "indexed": false,
          "name": "isContribution",
          "type": "bool"
        }
      ],
      "name": "FundTransfer",
      "type": "event",
      "signature": "0xe842aea7a5f1b01049d752008c53c52890b1a6daf660cf39e8eec506112bbdf6"
    },
    {
      "constant": false,
      "inputs": [],
      "name": "checkGoalReached",
      "outputs": [],
      "payable": false,
      "stateMutability": "nonpayable",
      "type": "function",
      "signature": "0x01cb3b20"
    },
    {
      "constant": false,
      "inputs": [],
      "name": "safeWithdrawal",
      "outputs": [],
      "payable": false,
      "stateMutability": "nonpayable",
      "type": "function",
      "signature": "0xfd6b7ef8"
    }
  ],
  "bytecode": "0x60806040526007805461ffff1916905534801561001b57600080fd5b5060405160a0806105c0833981018060405260a081101561003b57600080fd5b50805160208201516040830151606084015160809094015160008054600160a060020a03958616600160a060020a031991821617909155670de0b6b3a764000093840260015542610e10909302929092016003559190930260045560058054929091169190921617905561050c806100b46000396000f3fe6080604052600436106100985763ffffffff7c010000000000000000000000000000000000000000000000000000000060003504166301cb3b2081146101ba57806329dcb0cf146101d157806338af3eed146101f85780636e66f6e91461022957806370a082311461023e5780637a3a0e84146102715780637b3e5e7b14610286578063a035b1fe1461029b578063fd6b7ef8146102b0575b600754610100900460ff16156100ad57600080fd5b33600081815260066020526040902080543490810190915560028054820190556005546004549192600160a060020a039091169163a9059cbb9190848115156100f257fe5b046040518363ffffffff167c01000000000000000000000000000000000000000000000000000000000281526004018083600160a060020a0316600160a060020a0316815260200182815260200192505050600060405180830381600087803b15801561015e57600080fd5b505af1158015610172573d6000803e3d6000fd5b5050604080513381526020810185905260018183015290517fe842aea7a5f1b01049d752008c53c52890b1a6daf660cf39e8eec506112bbdf69350908190036060019150a150005b3480156101c657600080fd5b506101cf6102c5565b005b3480156101dd57600080fd5b506101e6610344565b60408051918252519081900360200190f35b34801561020457600080fd5b5061020d61034a565b60408051600160a060020a039092168252519081900360200190f35b34801561023557600080fd5b5061020d610359565b34801561024a57600080fd5b506101e66004803603602081101561026157600080fd5b5035600160a060020a0316610368565b34801561027d57600080fd5b506101e661037a565b34801561029257600080fd5b506101e6610380565b3480156102a757600080fd5b506101e6610386565b3480156102bc57600080fd5b506101cf61038c565b60035442106103425760015460025410610332576007805460ff1916600117905560005460025460408051600160a060020a039093168352602083019190915280517fec3f991caf7857d61663fd1bba1739e04abd4781238508cde554bb849d790c859281900390910190a15b6007805461ff0019166101001790555b565b60035481565b600054600160a060020a031681565b600554600160a060020a031681565b60066020526000908152604090205481565b60015481565b60025481565b60045481565b60035442106103425760075460ff161515610439573360009081526006602052604081208054908290559081111561043757604051339082156108fc029083906000818181858888f193505050501561042457604080513381526020810183905260008183015290517fe842aea7a5f1b01049d752008c53c52890b1a6daf660cf39e8eec506112bbdf69181900360600190a1610437565b3360009081526006602052604090208190555b505b60075460ff1680156104555750600054600160a060020a031633145b1561034257600254604051339180156108fc02916000818181858888f19350505050156104d4576000805460025460408051600160a060020a03909316835260208301919091528181019290925290517fe842aea7a5f1b01049d752008c53c52890b1a6daf660cf39e8eec506112bbdf69181900360600190a1610342565b6007805460ff1916905556fea165627a7a723058202ea44fb9b5bbff871bd7a3d0b2a36ac2b5eb4935b6b8627f043699d8ee5e84c80029",
  "source": "pragma solidity >=0.5.0 <0.6.0;\n\ninterface token {\n    function transfer(address receiver, uint amount) external;\n}\n\ncontract Crowdsale {\n    address public beneficiary;\n    uint public fundingGoal;\n    uint public amountRaised;\n    uint public deadline;\n    uint public price;\n    token public tokenReward;\n    mapping(address => uint256) public balanceOf;\n    bool fundingGoalReached = false;\n    bool crowdsaleClosed = false;\n\n    event GoalReached(address recipient, uint totalAmountRaised);\n    event FundTransfer(address backer, uint amount, bool isContribution);\n\n    /**\n     * Constructor\n     *\n     * Setup the owner\n     */\n    constructor(\n        address ifSuccessfulSendTo,\n        uint fundingGoalInEthers,\n        uint durationInMinutes,\n        uint etherCostOfEachToken,\n        address addressOfTokenUsedAsReward\n    ) public {\n        beneficiary = ifSuccessfulSendTo;\n        fundingGoal = fundingGoalInEthers * 1 ether;\n        deadline = now + durationInMinutes * 1 hours;\n        price = etherCostOfEachToken * 1 ether;\n        tokenReward = token(addressOfTokenUsedAsReward);\n    }\n\n    /**\n     * Fallback function\n     *\n     * The function without name is the default function that is called whenever anyone sends funds to a contract\n     */\n    function () payable external {\n        require(!crowdsaleClosed);\n        uint amount = msg.value;\n        balanceOf[msg.sender] += amount;\n        amountRaised += amount;\n        tokenReward.transfer(msg.sender, amount / price);\n       emit FundTransfer(msg.sender, amount, true);\n    }\n\n    modifier afterDeadline() { if (now >= deadline) _; }\n\n    /**\n     * Check if goal was reached\n     *\n     * Checks if the goal or time limit has been reached and ends the campaign\n     */\n    function checkGoalReached() public afterDeadline {\n        if (amountRaised >= fundingGoal){\n            fundingGoalReached = true;\n            emit GoalReached(beneficiary, amountRaised);\n        }\n        crowdsaleClosed = true;\n    }\n\n\n    /**\n     * Withdraw the funds\n     *\n     * Checks to see if goal or time limit has been reached, and if so, and the funding goal was reached,\n     * sends the entire amount to the beneficiary. If goal was not reached, each contributor can withdraw\n     * the amount they contributed.\n     */\n    function safeWithdrawal() public afterDeadline {\n        if (!fundingGoalReached) {\n            uint amount = balanceOf[msg.sender];\n            balanceOf[msg.sender] = 0;\n            if (amount > 0) {\n                if (msg.sender.send(amount)) {\n                   emit FundTransfer(msg.sender, amount, false);\n                } else {\n                    balanceOf[msg.sender] = amount;\n                }\n            }\n        }\n\n        if (fundingGoalReached && beneficiary == msg.sender) {\n            if (msg.sender.send(amountRaised)) {\n               emit FundTransfer(beneficiary, amountRaised, false);\n            } else {\n                //If we fail to send the funds to beneficiary, unlock funders balance\n                fundingGoalReached = false;\n            }\n        }\n    }\n}",
  "sourcePath": "/Users/andreas/Documents/CUHK/CSCI5590 Advanced Topics in Blockchain/cryptoflight/contracts/Crowdsale.sol",
  "compiler": {
    "name": "solc",
    "version": "0.5.0+commit.1d4f565a.Emscripten.clang"
  },
  "schemaVersion": "3.0.1",
  "updatedAt": "2019-03-23T03:46:40.663Z",
  "devdoc": {
    "methods": {}
  },
  "userdoc": {
    "methods": {
      "checkGoalReached()": {
        "notice": "Check if goal was reached     * Checks if the goal or time limit has been reached and ends the campaign"
      },
      "constructor": "Constructor     * Setup the owner",
      "safeWithdrawal()": {
        "notice": "Withdraw the funds     * Checks to see if goal or time limit has been reached, and if so, and the funding goal was reached, sends the entire amount to the beneficiary. If goal was not reached, each contributor can withdraw the amount they contributed."
      }
    }
  }
}