{
  "contractName": "CryptoFlightFactory",
  "abi": [
    {
      "constant": true,
      "inputs": [
        {
          "name": "",
          "type": "uint256"
        }
      ],
      "name": "deployedFlights",
      "outputs": [
        {
          "name": "",
          "type": "address"
        }
      ],
      "payable": false,
      "stateMutability": "view",
      "type": "function",
      "signature": "0xce69781a"
    },
    {
      "inputs": [
        {
          "name": "_cfToken",
          "type": "address"
        }
      ],
      "payable": false,
      "stateMutability": "nonpayable",
      "type": "constructor",
      "signature": "constructor"
    },
    {
      "constant": false,
      "inputs": [
        {
          "name": "minimumBid",
          "type": "uint256"
        },
        {
          "name": "departure",
          "type": "string"
        },
        {
          "name": "destination",
          "type": "string"
        }
      ],
      "name": "createFlight",
      "outputs": [],
      "payable": false,
      "stateMutability": "nonpayable",
      "type": "function",
      "signature": "0x908d633a"
    },
    {
      "constant": true,
      "inputs": [],
      "name": "getDeployedFlights",
      "outputs": [
        {
          "name": "",
          "type": "address[]"
        }
      ],
      "payable": false,
      "stateMutability": "view",
      "type": "function",
      "signature": "0x3b28ac6c"
    }
  ],
  "bytecode": "0x608060405234801561001057600080fd5b506040516020806116258339810180604052602081101561003057600080fd5b505160018054600160a060020a031916600160a060020a039092169190911790556115c5806100606000396000f3fe6080604052600436106100565763ffffffff7c01000000000000000000000000000000000000000000000000000000006000350416633b28ac6c811461005b578063908d633a146100c0578063ce69781a14610203575b600080fd5b34801561006757600080fd5b50610070610256565b60408051602080825283518183015283519192839290830191858101910280838360005b838110156100ac578181015183820152602001610094565b505050509050019250505060405180910390f35b3480156100cc57600080fd5b50610201600480360360608110156100e357600080fd5b8135919081019060408101602082013564010000000081111561010557600080fd5b82018360208201111561011757600080fd5b8035906020019184600183028401116401000000008311171561013957600080fd5b91908080601f016020809104026020016040519081016040528093929190818152602001838380828437600092019190915250929594936020810193503591505064010000000081111561018c57600080fd5b82018360208201111561019e57600080fd5b803590602001918460018302840111640100000000831117156101c057600080fd5b91908080601f0160208091040260200160405190810160405280939291908181526020018383808284376000920191909152509295506102c5945050505050565b005b34801561020f57600080fd5b5061022d6004803603602081101561022657600080fd5b503561047a565b6040805173ffffffffffffffffffffffffffffffffffffffff9092168252519081900360200190f35b606060008054806020026020016040519081016040528092919081815260200182805480156102bb57602002820191906000526020600020905b815473ffffffffffffffffffffffffffffffffffffffff168152600190910190602001808311610290575b5050505050905090565b600154600090849084908490339073ffffffffffffffffffffffffffffffffffffffff166102f16104af565b85815273ffffffffffffffffffffffffffffffffffffffff80841660608301528216608082015260a060208083018281528751928401929092528651604084019160c08501919089019080838360005b83811015610359578181015183820152602001610341565b50505050905090810190601f1680156103865780820380516001836020036101000a031916815260200191505b50838103825286518152865160209182019188019080838360005b838110156103b95781810151838201526020016103a1565b50505050905090810190601f1680156103e65780820380516001836020036101000a031916815260200191505b50975050505050505050604051809103906000f08015801561040c573d6000803e3d6000fd5b50600080546001810182559080527f290decd9548b62a8d60345a988386fc84ba6bc95484008f6362f93160ef3e56301805473ffffffffffffffffffffffffffffffffffffffff191673ffffffffffffffffffffffffffffffffffffffff9290921691909117905550505050565b600080548290811061048857fe5b60009182526020909120015473ffffffffffffffffffffffffffffffffffffffff16905081565b6040516110da806104c08339019056fe60806040523480156200001157600080fd5b50604051620010da380380620010da833981018060405260a08110156200003757600080fd5b8151602083018051919392830192916401000000008111156200005957600080fd5b820160208101848111156200006d57600080fd5b81516401000000008111828201871017156200008857600080fd5b50509291906020018051640100000000811115620000a557600080fd5b82016020810184811115620000b957600080fd5b8151640100000000811182820187101715620000d457600080fd5b505060208281015160409093015160038054600160a060020a031916600160a060020a038616179055600488905586519295509293506200011b9160059187019062000167565b5082516200013190600690602086019062000167565b506007805460ff19600160a060020a039093166101000261010060a860020a031990911617919091169055506200020c92505050565b828054600181600116156101000203166002900490600052602060002090601f016020900481019282601f10620001aa57805160ff1916838001178555620001da565b82800160010185558215620001da579182015b82811115620001da578251825591602001919060010190620001bd565b50620001e8929150620001ec565b5090565b6200020991905b80821115620001e85760008155600101620001f3565b90565b610ebe806200021c6000396000f3fe6080604052600436106100ab5763ffffffff60e060020a60003504166302d05d3f81146100b05780630d59e766146100e157806331fdb712146100f857806338b36e6e146102165780633e109a191461024a57806365be5e08146102715780637d19a5d5146102c35780638374150914610328578063b269681d146103b2578063b3f05b97146103c7578063d586837f146103f0578063d98b9bb51461041a578063dbc7ab9a14610453575b600080fd5b3480156100bc57600080fd5b506100c5610486565b60408051600160a060020a039092168252519081900360200190f35b3480156100ed57600080fd5b506100f6610495565b005b34801561010457600080fd5b5061010d6105b8565b6040518086600160a060020a0316600160a060020a03168152602001858152602001806020018060200184151515158152602001838103835286818151815260200191508051906020019080838360005b8381101561017657818101518382015260200161015e565b50505050905090810190601f1680156101a35780820380516001836020036101000a031916815260200191505b50838103825285518152855160209182019187019080838360005b838110156101d65781810151838201526020016101be565b50505050905090810190601f1680156102035780820380516001836020036101000a031916815260200191505b5097505050505050505060405180910390f35b34801561022257600080fd5b506100f66004803603602081101561023957600080fd5b503567ffffffffffffffff16610712565b34801561025657600080fd5b5061025f610b07565b60408051918252519081900360200190f35b34801561027d57600080fd5b5061029b6004803603602081101561029457600080fd5b5035610b0d565b60408051938452600160a060020a039092166020840152151582820152519081900360600190f35b3480156102cf57600080fd5b506102d8610b5f565b60408051602080825283518183015283519192839290830191858101910280838360005b838110156103145781810151838201526020016102fc565b505050509050019250505060405180910390f35b34801561033457600080fd5b5061033d610bc2565b6040805160208082528351818301528351919283929083019185019080838360005b8381101561037757818101518382015260200161035f565b50505050905090810190601f1680156103a45780820380516001836020036101000a031916815260200191505b509250505060405180910390f35b3480156103be57600080fd5b5061033d610c50565b3480156103d357600080fd5b506103dc610cab565b604080519115158252519081900360200190f35b3480156103fc57600080fd5b506100c56004803603602081101561041357600080fd5b5035610cb4565b34801561042657600080fd5b506100f66004803603604081101561043d57600080fd5b50600160a060020a038135169060200135610cdc565b34801561045f57600080fd5b506103dc6004803603602081101561047657600080fd5b5035600160a060020a0316610dfb565b600354600160a060020a031681565b600354600160a060020a031633146104ac57600080fd5b60005b60005461ffff8216101561059d576000808261ffff168154811015156104d157fe5b600091825260208083206001600290930201918201546007548354604080517fa9059cbb000000000000000000000000000000000000000000000000000000008152600160a060020a03948516600482018190526024820193909352905195975090956101009092049092169363a9059cbb936044808501949193918390030190829087803b15801561056357600080fd5b505af1158015610577573d6000803e3d6000fd5b505050506040513d602081101561058d57600080fd5b5050600190920191506104af9050565b506007805460ff191660011790556105b6600080610e10565b565b6003546004546007546005805460408051602060026101006001861615026000190190941693909304601f8101849004840282018401909252818152600096879660609687968996600160a060020a03909416959294909360069360ff90931692859183018282801561066c5780601f106106415761010080835404028352916020019161066c565b820191906000526020600020905b81548152906001019060200180831161064f57829003601f168201915b5050855460408051602060026001851615610100026000190190941693909304601f8101849004840282018401909252818152959850879450925084019050828280156106fa5780601f106106cf576101008083540402835291602001916106fa565b820191906000526020600020905b8154815290600101906020018083116106dd57829003601f168201915b50505050509150945094509450945094509091929394565b600354600160a060020a0316331461072957600080fd5b60005b8167ffffffffffffffff168167ffffffffffffffff1610801561075a575060005467ffffffffffffffff8216105b156108ea57600080805b60005461ffff8216101561080d576000805461ffff831690811061078457fe5b906000526020600020906002020160000154831080156107d257506000805461ffff83169081106107b157fe5b906000526020600020906002020160010160149054906101000a900460ff16155b15610805576000805461ffff83169081106107e957fe5b90600052602060002090600202016000015492508061ffff1691505b600101610764565b50600160008267ffffffffffffffff1681548110151561082957fe5b600091825260208220600160029092020181018054931515740100000000000000000000000000000000000000000274ff00000000000000000000000000000000000000001990941693909317909255805467ffffffffffffffff841690811061088f57fe5b600091825260208083206001600290930201820154845480840186559484529220909201805473ffffffffffffffffffffffffffffffffffffffff1916600160a060020a0390921691909117905592909201915061072c9050565b60005b60005461ffff82161015610af5576000805461ffff831690811061090d57fe5b906000526020600020906002020160010160149054906101000a900460ff16156109f95760075460035460008054600160a060020a0361010090940484169363a9059cbb9316919061ffff861690811061096357fe5b9060005260206000209060020201600001546040518363ffffffff1660e060020a0281526004018083600160a060020a0316600160a060020a0316815260200182815260200192505050602060405180830381600087803b1580156109c757600080fd5b505af11580156109db573d6000803e3d6000fd5b505050506040513d60208110156109f157600080fd5b50610aed9050565b6000808467ffffffffffffffff16815481101515610a1357fe5b6000918252602082206007546002929092020160018101548354919450610100909204600160a060020a039081169363a9059cbb93919091169161ffff8716908110610a5b57fe5b9060005260206000209060020201600001546040518363ffffffff1660e060020a0281526004018083600160a060020a0316600160a060020a0316815260200182815260200192505050602060405180830381600087803b158015610abf57600080fd5b505af1158015610ad3573d6000803e3d6000fd5b505050506040513d6020811015610ae957600080fd5b5050505b6001016108ed565b50506007805460ff1916600117905550565b60045481565b6000805482908110610b1b57fe5b600091825260209091206002909102018054600190910154909150600160a060020a0381169074010000000000000000000000000000000000000000900460ff1683565b60606001805480602002602001604051908101604052809291908181526020018280548015610bb757602002820191906000526020600020905b8154600160a060020a03168152600190910190602001808311610b99575b505050505090505b90565b6005805460408051602060026001851615610100026000190190941693909304601f81018490048402820184019092528181529291830182828015610c485780601f10610c1d57610100808354040283529160200191610c48565b820191906000526020600020905b815481529060010190602001808311610c2b57829003601f168201915b505050505081565b6006805460408051602060026001851615610100026000190190941693909304601f81018490048402820184019092528181529291830182828015610c485780601f10610c1d57610100808354040283529160200191610c48565b60075460ff1681565b6001805482908110610cc257fe5b600091825260209091200154600160a060020a0316905081565b6007546101009004600160a060020a03163314610cf857600080fd5b610d00610e34565b5060408051606081018252918252600160a060020a03928316602080840182815260008585018181529381526002928390529384208054600160ff1990911681179091558454908101855593805293517f290decd9548b62a8d60345a988386fc84ba6bc95484008f6362f93160ef3e563939091029283015591517f290decd9548b62a8d60345a988386fc84ba6bc95484008f6362f93160ef3e5649091018054925173ffffffffffffffffffffffffffffffffffffffff19909316919093161774ff000000000000000000000000000000000000000019167401000000000000000000000000000000000000000091151591909102179055565b60026020526000908152604090205460ff1681565b5080546000825560020290600052602060002090810190610e319190610e54565b50565b604080516060810182526000808252602082018190529181019190915290565b610bbf91905b80821115610e8e576000815560018101805474ffffffffffffffffffffffffffffffffffffffffff19169055600201610e5a565b509056fea165627a7a723058206d4833d5d237c85a6e676fb5efd977135191eb6b657be4c17369a1caf9f6e84f0029a165627a7a72305820664482a14070d252571814cd3685d0bada62b6580db32bf35b9e203747b6fdd00029",
  "source": "pragma solidity >=0.5.0 <0.6.0;\n\nimport \"./CryptoFlight.sol\";\n\ncontract CryptoFlightFactory {\n    CryptoFlight[] public deployedFlights;\n    address payable cfToken;\n\n    constructor(address payable _cfToken) public {\n        cfToken = _cfToken;\n    }\n\n    function createFlight(uint256 minimumBid, string memory departure, string memory destination) public {\n        CryptoFlight flight = new CryptoFlight(minimumBid, departure, destination, msg.sender, cfToken);\n        deployedFlights.push(flight);\n    }\n\n    function getDeployedFlights() public view returns (CryptoFlight[] memory) {\n        return deployedFlights;\n    }\n}",
  "sourcePath": "/Users/andreas/Developer/CF/contracts/CryptoFlightFactory.sol",
  "compiler": {
    "name": "solc",
    "version": "0.5.0+commit.1d4f565a.Emscripten.clang"
  },
  "schemaVersion": "3.0.5",
  "updatedAt": "2019-04-01T07:16:39.500Z",
  "devdoc": {
    "methods": {}
  },
  "userdoc": {
    "methods": {}
  }
}